{
  "address": "0x160B5146a830fF2888968DaC7B1FA05Ab15e0aA9",
  "abi": [
    {
      "inputs": [
        {
          "internalType": "uint256",
          "name": "_threshold",
          "type": "uint256"
        },
        {
          "internalType": "address[]",
          "name": "sender",
          "type": "address[]"
        }
      ],
      "stateMutability": "nonpayable",
      "type": "constructor"
    },
    {
      "inputs": [
        {
          "internalType": "address",
          "name": "sender",
          "type": "address"
        }
      ],
      "name": "NOTOwner",
      "type": "error"
    },
    {
      "inputs": [
        {
          "internalType": "uint256",
          "name": "threshold",
          "type": "uint256"
        }
      ],
      "name": "RequireThreshold",
      "type": "error"
    },
    {
      "inputs": [],
      "name": "transactionFailed",
      "type": "error"
    },
    {
      "anonymous": false,
      "inputs": [
        {
          "indexed": false,
          "internalType": "uint256",
          "name": "value",
          "type": "uint256"
        },
        {
          "indexed": false,
          "internalType": "address",
          "name": "to",
          "type": "address"
        },
        {
          "indexed": false,
          "internalType": "bytes",
          "name": "data",
          "type": "bytes"
        }
      ],
      "name": "TransactionCreate",
      "type": "event"
    },
    {
      "inputs": [
        {
          "internalType": "uint256",
          "name": "index",
          "type": "uint256"
        }
      ],
      "name": "Approve",
      "outputs": [],
      "stateMutability": "nonpayable",
      "type": "function"
    },
    {
      "inputs": [
        {
          "internalType": "uint256",
          "name": "_value",
          "type": "uint256"
        },
        {
          "internalType": "address",
          "name": "_to",
          "type": "address"
        },
        {
          "internalType": "bytes",
          "name": "_data",
          "type": "bytes"
        }
      ],
      "name": "CreateTransaction",
      "outputs": [],
      "stateMutability": "nonpayable",
      "type": "function"
    },
    {
      "inputs": [
        {
          "internalType": "uint256",
          "name": "",
          "type": "uint256"
        }
      ],
      "name": "Owners",
      "outputs": [
        {
          "internalType": "address",
          "name": "",
          "type": "address"
        }
      ],
      "stateMutability": "view",
      "type": "function"
    },
    {
      "inputs": [
        {
          "internalType": "uint256",
          "name": "index",
          "type": "uint256"
        }
      ],
      "name": "ProposalVoted",
      "outputs": [
        {
          "internalType": "bool",
          "name": "",
          "type": "bool"
        }
      ],
      "stateMutability": "view",
      "type": "function"
    },
    {
      "inputs": [
        {
          "internalType": "uint256",
          "name": "",
          "type": "uint256"
        },
        {
          "internalType": "address",
          "name": "",
          "type": "address"
        }
      ],
      "name": "WhichProposal",
      "outputs": [
        {
          "internalType": "bool",
          "name": "",
          "type": "bool"
        }
      ],
      "stateMutability": "view",
      "type": "function"
    },
    {
      "inputs": [
        {
          "internalType": "address",
          "name": "sender",
          "type": "address"
        }
      ],
      "name": "checkIsOwner",
      "outputs": [
        {
          "internalType": "bool",
          "name": "",
          "type": "bool"
        }
      ],
      "stateMutability": "view",
      "type": "function"
    },
    {
      "inputs": [
        {
          "internalType": "uint256",
          "name": "index",
          "type": "uint256"
        }
      ],
      "name": "executeTransaction",
      "outputs": [],
      "stateMutability": "nonpayable",
      "type": "function"
    },
    {
      "inputs": [
        {
          "internalType": "uint256",
          "name": "index",
          "type": "uint256"
        }
      ],
      "name": "getTransaction",
      "outputs": [
        {
          "components": [
            {
              "internalType": "uint256",
              "name": "value",
              "type": "uint256"
            },
            {
              "internalType": "address",
              "name": "to",
              "type": "address"
            },
            {
              "internalType": "bytes",
              "name": "data",
              "type": "bytes"
            },
            {
              "internalType": "bool",
              "name": "executed",
              "type": "bool"
            }
          ],
          "internalType": "struct MultiSignWallet.Transaction",
          "name": "",
          "type": "tuple"
        }
      ],
      "stateMutability": "view",
      "type": "function"
    },
    {
      "inputs": [
        {
          "internalType": "address",
          "name": "",
          "type": "address"
        }
      ],
      "name": "isOwner",
      "outputs": [
        {
          "internalType": "bool",
          "name": "",
          "type": "bool"
        }
      ],
      "stateMutability": "view",
      "type": "function"
    },
    {
      "inputs": [],
      "name": "threshold",
      "outputs": [
        {
          "internalType": "uint256",
          "name": "",
          "type": "uint256"
        }
      ],
      "stateMutability": "view",
      "type": "function"
    },
    {
      "stateMutability": "payable",
      "type": "receive"
    }
  ],
  "transactionHash": "0x3b862202a2d4038ead72e13f0da88e6936ce31e56e8186790d69b0538eaced0c",
  "args": [
    2,
    [
      "0xbB36F6C879e5751de0eA22aa9D6Ed463cCD876E6",
      "0x87eA22A0D0c788C2f223d3eAC004D5568672A341",
      "0xDF94a0F46e99Ca6F63Fa5E354fB6229F225Aed56"
    ]
  ],
  "numDeployments": 1,
  "solcInputHash": "d2e553bd688bd6a0afafe0d007c2f221",
  "bytecode": "0x60806040523480156200001157600080fd5b506040516200178a3803806200178a83398181016040528101906200003791906200023a565b8160038190555060005b815181101562000155576001600080848481518110620000665762000065620003e9565b5b602002602001015173ffffffffffffffffffffffffffffffffffffffff1673ffffffffffffffffffffffffffffffffffffffff16815260200190815260200160002060006101000a81548160ff0219169083151502179055506002828281518110620000d757620000d6620003e9565b5b60200260200101519080600181540180825580915050600190039060005260206000200160009091909190916101000a81548173ffffffffffffffffffffffffffffffffffffffff021916908373ffffffffffffffffffffffffffffffffffffffff16021790555080806200014c906200036c565b91505062000041565b505050620004a0565b6000620001756200016f84620002c9565b620002a0565b905080838252602082019050828560208602820111156200019b576200019a6200044c565b5b60005b85811015620001cf5781620001b48882620001d9565b8452602084019350602083019250506001810190506200019e565b5050509392505050565b600081519050620001ea816200046c565b92915050565b600082601f83011262000208576200020762000447565b5b81516200021a8482602086016200015e565b91505092915050565b600081519050620002348162000486565b92915050565b6000806040838503121562000254576200025362000456565b5b6000620002648582860162000223565b925050602083015167ffffffffffffffff81111562000288576200028762000451565b5b6200029685828601620001f0565b9150509250929050565b6000620002ac620002bf565b9050620002ba828262000336565b919050565b6000604051905090565b600067ffffffffffffffff821115620002e757620002e662000418565b5b602082029050602081019050919050565b600062000305826200030c565b9050919050565b600073ffffffffffffffffffffffffffffffffffffffff82169050919050565b6000819050919050565b62000341826200045b565b810181811067ffffffffffffffff8211171562000363576200036262000418565b5b80604052505050565b600062000379826200032c565b91507fffffffffffffffffffffffffffffffffffffffffffffffffffffffffffffffff821415620003af57620003ae620003ba565b5b600182019050919050565b7f4e487b7100000000000000000000000000000000000000000000000000000000600052601160045260246000fd5b7f4e487b7100000000000000000000000000000000000000000000000000000000600052603260045260246000fd5b7f4e487b7100000000000000000000000000000000000000000000000000000000600052604160045260246000fd5b600080fd5b600080fd5b600080fd5b600080fd5b6000601f19601f8301169050919050565b6200047781620002f8565b81146200048357600080fd5b50565b62000491816200032c565b81146200049d57600080fd5b50565b6112da80620004b06000396000f3fe6080604052600436106100955760003560e01c806377b92c071161005957806377b92c07146101c05780638a1ce908146101e95780638fa1f3b214610226578063dc467f8e1461024f578063ee22610b1461028c5761009c565b806326b645fd146100a157806327e0d562146100de5780632f54bf6e1461011b57806333ea3dc81461015857806342cde4e8146101955761009c565b3661009c57005b600080fd5b3480156100ad57600080fd5b506100c860048036038101906100c39190610cca565b6102b5565b6040516100d59190610f7f565b60405180910390f35b3480156100ea57600080fd5b5061010560048036038101906101009190610cf7565b61031c565b6040516101129190610f7f565b60405180910390f35b34801561012757600080fd5b50610142600480360381019061013d9190610c9d565b61034b565b60405161014f9190610f7f565b60405180910390f35b34801561016457600080fd5b5061017f600480360381019061017a9190610cca565b61036b565b60405161018c9190610f9a565b60405180910390f35b3480156101a157600080fd5b506101aa6104b4565b6040516101b79190610fbc565b60405180910390f35b3480156101cc57600080fd5b506101e760048036038101906101e29190610cca565b6104ba565b005b3480156101f557600080fd5b50610210600480360381019061020b9190610cca565b6105b2565b60405161021d9190610f64565b60405180910390f35b34801561023257600080fd5b5061024d60048036038101906102489190610d37565b6105f1565b005b34801561025b57600080fd5b5061027660048036038101906102719190610c9d565b610800565b6040516102839190610f7f565b60405180910390f35b34801561029857600080fd5b506102b360048036038101906102ae9190610cca565b610855565b005b60006001600083815260200190815260200160002060003373ffffffffffffffffffffffffffffffffffffffff1673ffffffffffffffffffffffffffffffffffffffff16815260200190815260200160002060009054906101000a900460ff169050919050565b60016020528160005260406000206020528060005260406000206000915091509054906101000a900460ff1681565b60006020528060005260406000206000915054906101000a900460ff1681565b610373610b3a565b600482815481106103875761038661121d565b5b9060005260206000209060040201604051806080016040529081600082015481526020016001820160009054906101000a900473ffffffffffffffffffffffffffffffffffffffff1673ffffffffffffffffffffffffffffffffffffffff1673ffffffffffffffffffffffffffffffffffffffff16815260200160028201805461041090611144565b80601f016020809104026020016040519081016040528092919081815260200182805461043c90611144565b80156104895780601f1061045e57610100808354040283529160200191610489565b820191906000526020600020905b81548152906001019060200180831161046c57829003601f168201915b505050505081526020016003820160009054906101000a900460ff1615151515815250509050919050565b60035481565b6000803373ffffffffffffffffffffffffffffffffffffffff1673ffffffffffffffffffffffffffffffffffffffff16815260200190815260200160002060009054906101000a900460ff1661054757336040517ff46bf03d00000000000000000000000000000000000000000000000000000000815260040161053e9190610f64565b60405180910390fd5b600180600083815260200190815260200160002060003373ffffffffffffffffffffffffffffffffffffffff1673ffffffffffffffffffffffffffffffffffffffff16815260200190815260200160002060006101000a81548160ff02191690831515021790555050565b600281815481106105c257600080fd5b906000526020600020016000915054906101000a900473ffffffffffffffffffffffffffffffffffffffff1681565b6000803373ffffffffffffffffffffffffffffffffffffffff1673ffffffffffffffffffffffffffffffffffffffff16815260200190815260200160002060009054906101000a900460ff1661067e57336040517ff46bf03d0000000000000000000000000000000000000000000000000000000081526004016106759190610f64565b60405180910390fd5b600060405180608001604052808681526020018573ffffffffffffffffffffffffffffffffffffffff16815260200184848080601f016020809104026020016040519081016040528093929190818152602001838380828437600081840152601f19601f82011690508083019250505050505050815260200160001515815250905060048190806001815401808255809150506001900390600052602060002090600402016000909190919091506000820151816000015560208201518160010160006101000a81548173ffffffffffffffffffffffffffffffffffffffff021916908373ffffffffffffffffffffffffffffffffffffffff1602179055506040820151816002019080519060200190610799929190610b7a565b5060608201518160030160006101000a81548160ff02191690831515021790555050507f73e401ccaea44eb8689b332d0b8846281bab922b919848a8e76c9a88fff89e6a858585856040516107f19493929190610fd7565b60405180910390a15050505050565b60008060008373ffffffffffffffffffffffffffffffffffffffff1673ffffffffffffffffffffffffffffffffffffffff16815260200190815260200160002060009054906101000a900460ff169050919050565b6000803373ffffffffffffffffffffffffffffffffffffffff1673ffffffffffffffffffffffffffffffffffffffff16815260200190815260200160002060009054906101000a900460ff166108e257336040517ff46bf03d0000000000000000000000000000000000000000000000000000000081526004016108d99190610f64565b60405180910390fd5b6000805b6002805490508110156109b7576001600084815260200190815260200160002060006002838154811061091c5761091b61121d565b5b9060005260206000200160009054906101000a900473ffffffffffffffffffffffffffffffffffffffff1673ffffffffffffffffffffffffffffffffffffffff1673ffffffffffffffffffffffffffffffffffffffff16815260200190815260200160002060009054906101000a900460ff16156109a4576001826109a19190611064565b91505b80806109af90611176565b9150506108e6565b506003548110156109ff57806040517ff1a6d7bd0000000000000000000000000000000000000000000000000000000081526004016109f69190610fbc565b60405180910390fd5b60008060048481548110610a1657610a1561121d565b5b906000526020600020906004020160010160009054906101000a900473ffffffffffffffffffffffffffffffffffffffff1673ffffffffffffffffffffffffffffffffffffffff1660048581548110610a7257610a7161121d565b5b90600052602060002090600402016000015460048681548110610a9857610a9761121d565b5b9060005260206000209060040201600201604051610ab69190610f4d565b60006040518083038185875af1925050503d8060008114610af3576040519150601f19603f3d011682016040523d82523d6000602084013e610af8565b606091505b509150915081610b34576040517fdccf81a900000000000000000000000000000000000000000000000000000000815260040160405180910390fd5b50505050565b604051806080016040528060008152602001600073ffffffffffffffffffffffffffffffffffffffff168152602001606081526020016000151581525090565b828054610b8690611144565b90600052602060002090601f016020900481019282610ba85760008555610bef565b82601f10610bc157805160ff1916838001178555610bef565b82800160010185558215610bef579182015b82811115610bee578251825591602001919060010190610bd3565b5b509050610bfc9190610c00565b5090565b5b80821115610c19576000816000905550600101610c01565b5090565b600081359050610c2c81611276565b92915050565b60008083601f840112610c4857610c47611251565b5b8235905067ffffffffffffffff811115610c6557610c6461124c565b5b602083019150836001820283011115610c8157610c80611256565b5b9250929050565b600081359050610c978161128d565b92915050565b600060208284031215610cb357610cb2611260565b5b6000610cc184828501610c1d565b91505092915050565b600060208284031215610ce057610cdf611260565b5b6000610cee84828501610c88565b91505092915050565b60008060408385031215610d0e57610d0d611260565b5b6000610d1c85828601610c88565b9250506020610d2d85828601610c1d565b9150509250929050565b60008060008060608587031215610d5157610d50611260565b5b6000610d5f87828801610c88565b9450506020610d7087828801610c1d565b935050604085013567ffffffffffffffff811115610d9157610d9061125b565b5b610d9d87828801610c32565b925092505092959194509250565b610db4816110ba565b82525050565b610dc3816110ba565b82525050565b610dd2816110cc565b82525050565b610de1816110cc565b82525050565b6000610df38385611048565b9350610e00838584611102565b610e0983611265565b840190509392505050565b6000610e1f8261102c565b610e298185611037565b9350610e39818560208601611111565b610e4281611265565b840191505092915050565b60008154610e5a81611144565b610e648186611059565b94506001821660008114610e7f5760018114610e9057610ec3565b60ff19831686528186019350610ec3565b610e9985611017565b60005b83811015610ebb57815481890152600182019150602081019050610e9c565b838801955050505b50505092915050565b6000608083016000830151610ee46000860182610f2f565b506020830151610ef76020860182610dab565b5060408301518482036040860152610f0f8282610e14565b9150506060830151610f246060860182610dc9565b508091505092915050565b610f38816110f8565b82525050565b610f47816110f8565b82525050565b6000610f598284610e4d565b915081905092915050565b6000602082019050610f796000830184610dba565b92915050565b6000602082019050610f946000830184610dd8565b92915050565b60006020820190508181036000830152610fb48184610ecc565b905092915050565b6000602082019050610fd16000830184610f3e565b92915050565b6000606082019050610fec6000830187610f3e565b610ff96020830186610dba565b818103604083015261100c818486610de7565b905095945050505050565b60008190508160005260206000209050919050565b600081519050919050565b600082825260208201905092915050565b600082825260208201905092915050565b600081905092915050565b600061106f826110f8565b915061107a836110f8565b9250827fffffffffffffffffffffffffffffffffffffffffffffffffffffffffffffffff038211156110af576110ae6111bf565b5b828201905092915050565b60006110c5826110d8565b9050919050565b60008115159050919050565b600073ffffffffffffffffffffffffffffffffffffffff82169050919050565b6000819050919050565b82818337600083830152505050565b60005b8381101561112f578082015181840152602081019050611114565b8381111561113e576000848401525b50505050565b6000600282049050600182168061115c57607f821691505b602082108114156111705761116f6111ee565b5b50919050565b6000611181826110f8565b91507fffffffffffffffffffffffffffffffffffffffffffffffffffffffffffffffff8214156111b4576111b36111bf565b5b600182019050919050565b7f4e487b7100000000000000000000000000000000000000000000000000000000600052601160045260246000fd5b7f4e487b7100000000000000000000000000000000000000000000000000000000600052602260045260246000fd5b7f4e487b7100000000000000000000000000000000000000000000000000000000600052603260045260246000fd5b600080fd5b600080fd5b600080fd5b600080fd5b600080fd5b6000601f19601f8301169050919050565b61127f816110ba565b811461128a57600080fd5b50565b611296816110f8565b81146112a157600080fd5b5056fea26469706673582212207c8f506ee6921441c7c55c04f0fae5d7959dbfb49b273a44add4ad03b64605ab64736f6c63430008070033",
  "devdoc": {
    "kind": "dev",
    "methods": {},
    "version": 1
  },
  "userdoc": {
    "kind": "user",
    "methods": {},
    "version": 1
  },
  "storageLayout": {
    "storage": [
      {
        "astId": 23,
        "contract": "contracts/MultiSignWallet.sol:MultiSignWallet",
        "label": "isOwner",
        "offset": 0,
        "slot": "0",
        "type": "t_mapping(t_address,t_bool)"
      },
      {
        "astId": 29,
        "contract": "contracts/MultiSignWallet.sol:MultiSignWallet",
        "label": "WhichProposal",
        "offset": 0,
        "slot": "1",
        "type": "t_mapping(t_uint256,t_mapping(t_address,t_bool))"
      },
      {
        "astId": 32,
        "contract": "contracts/MultiSignWallet.sol:MultiSignWallet",
        "label": "Owners",
        "offset": 0,
        "slot": "2",
        "type": "t_array(t_address)dyn_storage"
      },
      {
        "astId": 34,
        "contract": "contracts/MultiSignWallet.sol:MultiSignWallet",
        "label": "threshold",
        "offset": 0,
        "slot": "3",
        "type": "t_uint256"
      },
      {
        "astId": 47,
        "contract": "contracts/MultiSignWallet.sol:MultiSignWallet",
        "label": "transaction",
        "offset": 0,
        "slot": "4",
        "type": "t_array(t_struct(Transaction)43_storage)dyn_storage"
      }
    ],
    "types": {
      "t_address": {
        "encoding": "inplace",
        "label": "address",
        "numberOfBytes": "20"
      },
      "t_array(t_address)dyn_storage": {
        "base": "t_address",
        "encoding": "dynamic_array",
        "label": "address[]",
        "numberOfBytes": "32"
      },
      "t_array(t_struct(Transaction)43_storage)dyn_storage": {
        "base": "t_struct(Transaction)43_storage",
        "encoding": "dynamic_array",
        "label": "struct MultiSignWallet.Transaction[]",
        "numberOfBytes": "32"
      },
      "t_bool": {
        "encoding": "inplace",
        "label": "bool",
        "numberOfBytes": "1"
      },
      "t_bytes_storage": {
        "encoding": "bytes",
        "label": "bytes",
        "numberOfBytes": "32"
      },
      "t_mapping(t_address,t_bool)": {
        "encoding": "mapping",
        "key": "t_address",
        "label": "mapping(address => bool)",
        "numberOfBytes": "32",
        "value": "t_bool"
      },
      "t_mapping(t_uint256,t_mapping(t_address,t_bool))": {
        "encoding": "mapping",
        "key": "t_uint256",
        "label": "mapping(uint256 => mapping(address => bool))",
        "numberOfBytes": "32",
        "value": "t_mapping(t_address,t_bool)"
      },
      "t_struct(Transaction)43_storage": {
        "encoding": "inplace",
        "label": "struct MultiSignWallet.Transaction",
        "members": [
          {
            "astId": 36,
            "contract": "contracts/MultiSignWallet.sol:MultiSignWallet",
            "label": "value",
            "offset": 0,
            "slot": "0",
            "type": "t_uint256"
          },
          {
            "astId": 38,
            "contract": "contracts/MultiSignWallet.sol:MultiSignWallet",
            "label": "to",
            "offset": 0,
            "slot": "1",
            "type": "t_address"
          },
          {
            "astId": 40,
            "contract": "contracts/MultiSignWallet.sol:MultiSignWallet",
            "label": "data",
            "offset": 0,
            "slot": "2",
            "type": "t_bytes_storage"
          },
          {
            "astId": 42,
            "contract": "contracts/MultiSignWallet.sol:MultiSignWallet",
            "label": "executed",
            "offset": 0,
            "slot": "3",
            "type": "t_bool"
          }
        ],
        "numberOfBytes": "128"
      },
      "t_uint256": {
        "encoding": "inplace",
        "label": "uint256",
        "numberOfBytes": "32"
      }
    }
  }
}