{
  "address": "0xB273A7bb47F6Dc0c85C8ef6B585f15261962abFD",
  "abi": [
    {
      "anonymous": false,
      "inputs": [
        {
          "indexed": false,
          "internalType": "bytes",
          "name": "data",
          "type": "bytes"
        }
      ],
      "name": "getData",
      "type": "event"
    },
    {
      "inputs": [],
      "name": "getSet",
      "outputs": [
        {
          "internalType": "bytes",
          "name": "data",
          "type": "bytes"
        }
      ],
      "stateMutability": "nonpayable",
      "type": "function"
    },
    {
      "inputs": [],
      "name": "number",
      "outputs": [
        {
          "internalType": "uint256",
          "name": "",
          "type": "uint256"
        }
      ],
      "stateMutability": "view",
      "type": "function"
    },
    {
      "inputs": [],
      "name": "owner",
      "outputs": [
        {
          "internalType": "address",
          "name": "",
          "type": "address"
        }
      ],
      "stateMutability": "view",
      "type": "function"
    },
    {
      "inputs": [],
      "name": "set",
      "outputs": [],
      "stateMutability": "payable",
      "type": "function"
    }
  ],
  "transactionHash": "0x44852a98f52b3f1730a2e61773ac4d68e063e1179391ea9a5431f939d37a8b31",
  "args": [],
  "numDeployments": 1,
  "solcInputHash": "8a5034c524196c6df3b45b7835e47fad",
  "bytecode": "0x608060405234801561001057600080fd5b5061044f806100206000396000f3fe60806040526004361061003f5760003560e01c806331f070d9146100445780638381f58a1461006f5780638da5cb5b1461009a578063b8e010de146100c5575b600080fd5b34801561005057600080fd5b506100596100cf565b60405161006691906102e6565b60405180910390f35b34801561007b57600080fd5b50610084610190565b6040516100919190610328565b60405180910390f35b3480156100a657600080fd5b506100af610196565b6040516100bc91906102cb565b60405180910390f35b6100cd6101bc565b005b60606040516024016040516020818303038152906040527fb8e010de000000000000000000000000000000000000000000000000000000007bffffffffffffffffffffffffffffffffffffffffffffffffffffffff19166020820180517bffffffffffffffffffffffffffffffffffffffffffffffffffffffff838183161783525050505090507f1431b23a43247b7a36462ffd3b52962fabf890b696192bc07fc80845742fc9948160405161018591906102e6565b60405180910390a190565b60005481565b600160009054906101000a900473ffffffffffffffffffffffffffffffffffffffff1681565b670de0b6b3a7640000341015610207576040517f08c379a00000000000000000000000000000000000000000000000000000000081526004016101fe90610308565b60405180910390fd5b3460008190555033600160006101000a81548173ffffffffffffffffffffffffffffffffffffffff021916908373ffffffffffffffffffffffffffffffffffffffff160217905550565b61025a81610370565b82525050565b600061026b82610343565b610275818561034e565b93506102858185602086016103ac565b61028e816103df565b840191505092915050565b60006102a660198361035f565b91506102b1826103f0565b602082019050919050565b6102c5816103a2565b82525050565b60006020820190506102e06000830184610251565b92915050565b600060208201905081810360008301526103008184610260565b905092915050565b6000602082019050818103600083015261032181610299565b9050919050565b600060208201905061033d60008301846102bc565b92915050565b600081519050919050565b600082825260208201905092915050565b600082825260208201905092915050565b600061037b82610382565b9050919050565b600073ffffffffffffffffffffffffffffffffffffffff82169050919050565b6000819050919050565b60005b838110156103ca5780820151818401526020810190506103af565b838111156103d9576000848401525b50505050565b6000601f19601f8301169050919050565b7f52657175697265206d6f7265207468616e204f6e65204554480000000000000060008201525056fea26469706673582212201ea95050b9f0c3f134af36f962d7d0ef4285502743373f3c0530f331d254ccf164736f6c63430008070033",
  "devdoc": {
    "kind": "dev",
    "methods": {},
    "version": 1
  },
  "userdoc": {
    "kind": "user",
    "methods": {},
    "version": 1
  },
  "storageLayout": {
    "storage": [
      {
        "astId": 232,
        "contract": "contracts/TestContract.sol:TestContract",
        "label": "number",
        "offset": 0,
        "slot": "0",
        "type": "t_uint256"
      },
      {
        "astId": 234,
        "contract": "contracts/TestContract.sol:TestContract",
        "label": "owner",
        "offset": 0,
        "slot": "1",
        "type": "t_address"
      }
    ],
    "types": {
      "t_address": {
        "encoding": "inplace",
        "label": "address",
        "numberOfBytes": "20"
      },
      "t_uint256": {
        "encoding": "inplace",
        "label": "uint256",
        "numberOfBytes": "32"
      }
    }
  }
}